:020000040800F2
:100000000000012069480008511F0008531F000824
:10001000551F0008571F0008591F00080000000066
:100020000000000000000000000000005B1F00084E
:100030005D1F0008000000005F1F0008611F00082E
:10004000B9480008B9480008B9480008B94800088C
:10005000B9480008B9480008B9480008B94800087C
:10006000B9480008B9480008B9480008B94800086C
:10007000B9480008B9480008B9480008B94800085C
:10008000B9480008B9480008B9480008B94800084C
:10009000B9480008B9480008B9480008B94800083C
:1000A000B9480008B9480008B9480008B94800082C
:1000B000B9480008B9480008B9480008B94800081C
:1000C000B9480008B9480008B9480008B94800080C
:1000D000B9480008B9480008B9480008B9480008FC
:1000E000B9480008B9480008B9480008B9480008EC
:1000F000B9480008B9480008B9480008B9480008DC
:10010000B94800080000000000000000B9480008DD
:10011000691F0008B9480008B9480008B948000834
:10012000B9480008B9480008B9480008B9480008AB
:10013000B9480008B94800080000000000000000AD
:10014000B9480008B9480008B94800080000000094
:10015000000000000000000000000000000000009F
:10016000B9480008B9480008B9480008B94800086B
:10017000B9480008B9480008B9480008B94800085B
:10018000B9480008B948000800000000000000005D
:04019000B948000862
:1001940010B5054C237833B9044B13B10448AFF3BD
:1001A40000800123237010BD2800002000000000FF
:1001B4001449000808B5034B1BB103490348AFF3C6
:1001C400008008BD000000002C0000201449000835
:1001D40081F0004102E000BF83F0004330B54FEAF4
:1001E40041044FEA430594EA050F08BF90EA020F61
:1001F4001FBF54EA000C55EA020C7FEA645C7FEAF4
:10020400655C00F0E2804FEA5454D4EB5555B8BF16
:100214006D420CDD2C4480EA020281EA030382EA87
:10022400000083EA010180EA020281EA0303362D19
:1002340088BF30BD11F0004F4FEA01314FF4801CEC
:100244004CEA113102D0404261EB410113F0004FFE
:100254004FEA03334CEA133302D0524263EB4303B5
:1002640094EA050F00F0A780A4F10104D5F1200E53
:100274000DDB02FA0EFC22FA05F2801841F10001AE
:1002840003FA0EF2801843FA05F359410EE0A5F182
:1002940020050EF1200E012A03FA0EFC28BF4CF0B3
:1002A400020C43FA05F3C01851EBE37101F0004569
:1002B40007D54FF0000EDCF1000C7EEB00006EEB76
:1002C4000101B1F5801F1BD3B1F5001F0CD3490800
:1002D4005FEA30004FEA3C0C04F101044FEA445257
:1002E40012F5800F80F09A80BCF1004F08BF5FEADE
:1002F400500C50F1000041EB045141EA050130BDBE
:100304005FEA4C0C404141EB010111F4801FA4F160
:100314000104E9D191F0000F04BF01460020B1FAB5
:1003240081F308BF2033A3F10B03B3F120020CDAED
:100334000C3208DD02F1140CC2F10C0201FA0CF0CB
:1003440021FA02F10CE002F11402D8BFC2F1200C30
:1003540001FA02F120FA0CFCDCBF41EA0C019040E6
:10036400E41AA2BF01EB0451294330BD6FEA04042F
:100374001F3C1CDA0C340EDC04F11404C4F120021A
:1003840020FA04F001FA02F340EA030021FA04F32C
:1003940045EA030130BDC4F10C04C4F1200220FA83
:1003A40002F001FA04F340EA0300294630BD21FAC1
:1003B40004F0294630BD94F0000F83F4801306BF87
:1003C40081F480110134013D4EE77FEA645C18BF7B
:1003D4007FEA655C29D094EA050F08BF90EA020F12
:1003E40005D054EA000C04BF1946104630BD91EA0A
:1003F400030F1EBF0021002030BD5FEA545C05D10D
:100404004000494128BF41F0004130BD14F580044B
:100414003CBF01F5801130BD01F0004545F0FE41BF
:1004240041F470014FF0000030BD7FEA645C1ABFF4
:10043400194610467FEA655C1CBF0B46024650EA2B
:10044400013406BF52EA033591EA030F41F4002157
:1004540030BD00BF90F0000F04BF0021704730B5DD
:100464004FF4806404F132044FF000054FF00001B2
:1004740050E700BF90F0000F04BF0021704730B573
:100484004FF4806404F1320410F0004548BF404248
:100494004FF000013EE700BF42004FEAE2014FEA9D
:1004A40031014FEA02701FBF12F07F4393F07F4F78
:1004B40081F06051704732F07F4208BF704793F07B
:1004C4007F4F04BF41F40021704730B54FF460748E
:1004D40001F0004521F000411CE700BF50EA010291
:1004E40008BF704730B54FF000050AE050EA01023A
:1004F40008BF704730B511F0004502D5404261EBAA
:1005040041014FF4806404F132045FEA915C3FF4EA
:10051400D8AE4FF003025FEADC0C18BF03325FEA87
:10052400DC0C18BF033202EBDC02C2F1200300FA38
:1005340003FC20FA02F001FA03FE40EA0E0021FA5D
:1005440002F11444BDE600BF70B54FF0FF0C4CF44B
:10055400E06C1CEA11541DBF1CEA135594EA0C0FFD
:1005640095EA0C0F00F0DEF82C4481EA030621EA38
:100574004C5123EA4C5350EA013518BF52EA033573
:1005840041F4801143F4801338D0A0FB02CE4FF025
:100594000005E1FB02E506F00042E0FB03E54FF055
:1005A4000006E1FB03569CF0000F18BF4EF0010E4D
:1005B400A4F1FF04B6F5007F64F5407404D25FEA49
:1005C4004E0E6D4146EB060642EAC62141EA5551FC
:1005D4004FEAC52040EA5E504FEACE2EB4F1FD0C3E
:1005E40088BFBCF5E06F1ED8BEF1004F08BF5FEABC
:1005F400500E50F1000041EB045170BD06F000466E
:1006040046EA010140EA020081EA0301B4EB5C041A
:10061400C2BFD4EB0C0541EA045170BD41F4801112
:100624004FF0000E013C00F3AB8014F1360FDEBF37
:10063400002001F0004170BDC4F10004203C35DA13
:100644000C341BDC04F11404C4F1200500FA05F396
:1006540020FA04F001FA05F240EA020001F0004237
:1006640021F0004110EBD37021FA04F642EB0601AD
:100674005EEA430E08BF20EAD37070BDC4F10C04D7
:10068400C4F1200500FA04F320FA05F001FA04F29B
:1006940040EA020001F0004110EBD37041F1000187
:1006A4005EEA430E08BF20EAD37070BDC4F1200592
:1006B40000FA05F24EEA020E20FA04F301FA05F2FA
:1006C40043EA020321FA04F001F0004121FA04F2A2
:1006D40020EA020000EBD3705EEA430E08BF20EA72
:1006E400D37070BD94F0000F0FD101F000464000AC
:1006F40041EB010111F4801F08BF013CF7D041EA2E
:10070400060195F0000F18BF704703F00046520031
:1007140043EB030313F4801F08BF013DF7D043EA02
:100724000603704794EA0C0F0CEA135518BF95EAB8
:100734000C0F0CD050EA410618BF52EA4306D1D13F
:1007440081EA030101F000414FF0000070BD50EA5E
:10075400410606BF1046194652EA430619D094EAE8
:100764000C0F02D150EA013613D195EA0C0F05D1D2
:1007740052EA03361CBF104619460AD181EA030126
:1007840001F0004141F0FE4141F470014FF00000DE
:1007940070BD41F0FE4141F4780170BD70B54FF079
:1007A400FF0C4CF4E06C1CEA11541DBF1CEA1355F9
:1007B40094EA0C0F95EA0C0F00F0A7F8A4EB0504DB
:1007C40081EA030E52EA03354FEA013100F08880D2
:1007D4004FEA03334FF0805545EA131343EA12639B
:1007E4004FEA022245EA111545EA10654FEA002650
:1007F4000EF000419D4208BF964244F1FD0404F509
:10080400407402D25B084FEA3202B61A65EB030564
:100814005B084FEA32024FF480104FF4002CB6EB21
:10082400020E75EB030E22BFB61A754640EA0C00A1
:100834005B084FEA3202B6EB020E75EB030E22BFE1
:10084400B61A754640EA5C005B084FEA3202B6EB22
:10085400020E75EB030E22BFB61A754640EA9C00E1
:100864005B084FEA3202B6EB020E75EB030E22BFB1
:10087400B61A754640EADC0055EA060E18D04FEA6F
:10088400051545EA16754FEA06164FEAC30343EA0F
:1008940052734FEAC2025FEA1C1CC0D111F4801FDC
:1008A4000BD141EA00014FF000004FF0004CB6E7D5
:1008B40011F4801F04BF01430020B4F1FD0C88BF74
:1008C400BCF5E06F3FF6AFAEB5EB030C04BFB6EB7F
:1008D400020C5FEA500C50F1000041EB045170BD72
:1008E4000EF0004E4EEA113114EB5C04C2BFD4EB9F
:1008F4000C0541EA045170BD41F480114FF0000E23
:10090400013C90E645EA060E8DE60CEA135594EA9E
:100914000C0F08BF95EA0C0F3FF43BAF94EA0C0FA1
:100924000AD150EA01347FF434AF95EA0C0F7FF416
:1009340025AF104619462CE795EA0C0F06D152EA6A
:1009440003353FF4FDAE1046194622E750EA41064E
:1009540018BF52EA43067FF4C5AE50EA41047FF45F
:100964000DAF52EA43057FF4EBAE12E74FEA4102C2
:1009740012F5001215D211D56FF47873B3EB6252ED
:1009840012D94FEAC12343F0004343EA505311F014
:10099400004F23FA02F018BF404270474FF00000A6
:1009A400704750EA013005D111F0004008BF6FF0E4
:1009B400004070474FF00000704700BF4A0011D25A
:1009C40012F5001211D20DD56FF47873B3EB6252A5
:1009D4000ED44FEAC12343F0004343EA505323FAB1
:1009E40002F070474FF00000704750EA013002D126
:1009F4004FF0FF3070474FF0000070477BB972B979
:100A04000029BEBF00204FF0004106E008BF0028C7
:100A14001CBF6FF000414FF0FF3000F0A7B9ADF1FB
:100A2400080C6DE904CE002909DB002B1ADB00F069
:100A340035F8DDF804E0DDE9022304B070474042F4
:100A440061EB4101002B1BDB00F028F8DDF804E02A
:100A5400DDE9022304B0404261EB4101524263EB01
:100A640043037047524263EB430300F017F8DDF889
:100A740004E0DDE9022304B0404261EB4101704728
:100A8400524263EB430300F009F8DDF804E0DDE9CA
:100A9400022304B0524263EB430370472DE9F0474D
:100AA400089E04468846002B40F085808A421546FD
:100AB40048D9B2FA82F24AB1C2F1200701FA02F32C
:100AC40020FA07F7954047EA030894404FEA154E89
:100AD400230CB8FBFEF71FFA85FC0EFB178843EACC
:100AE400084307FB0CF1994209D9EB1807F1FF30D1
:100AF40080F0E380994240F2E080023F2B445B1A8D
:100B0400A4B2B3FBFEF00EFB103344EA034400FB33
:100B14000CFCA44509D92C1900F1FF3380F0CB80DB
:100B2400A44540F2C88002382C4440EA0740A4EBB4
:100B34000C0400271EB1D4400023C6E90043394603
:100B4400BDE8F087002A53D0B2FA82F2002A40F0BE
:100B5400B680491B4FEA154E1FFA85F80127B1FBF1
:100B6400FEFC230C0EFB1C1143EA014308FB0CF1B1
:100B7400994207D9EB180CF1FF3002D2994200F2E6
:100B8400EC808446591AA3B2B1FBFEF00EFB10149C
:100B940043EA044408FB00F8A04507D92C1900F1E6
:100BA400FF3302D2A04500F2DC801846A4EB08040F
:100BB40040EA0C40BEE78B4208D9002E78D00027CB
:100BC400C6E9000138463946BDE8F087B3FA83F731
:100BD4007FB98B4202D3824200F2BD80841A61EB5A
:100BE400030301209846002EA9D0C6E90048A6E7D1
:100BF400FFDEC7F12005BB4022FA05FC4CEA030CDA
:100C040001FA07F420FA05F821FA05F34FEA1C4E1D
:100C140048EA0404B3FBFEF9210C0EFB19331FFA56
:100C24008CF841EA034309FB08FA9A4502FA07F2F1
:100C340000FA07F10BD91CEB030309F1FF3080F034
:100C440088809A4540F28580A9F102096344A3EBA8
:100C54000A03A4B2B3FBFEF00EFB103344EA0344D0
:100C640000FB08F8A04508D91CEB040400F1FF338D
:100C74006BD2A04569D90238644440EA0940A4EB28
:100C84000804A0FB02894C45C6464B4654D351D0B8
:100C9400002E69D0B1EB0E0264EB030404FA05F5EF
:100CA40022FA07F3FC401D43C6E90054002746E737
:100CB4003746304643E7184637E707461FE7C2F191
:100CC400200320FA03F7954001FA02F021FA03F316
:100CD4004FEA154E3843010CB3FBFEF71FFA85F8B3
:100CE4000EFB173341EA034107FB08F38B4204FA76
:100CF40002F407D9691807F1FF3C28D28B4226D9A0
:100D0400023F2944CB1A81B2B3FBFEF00EFB103331
:100D140041EA034100FB08F38B4207D9691800F14B
:100D2400FF3C10D28B420ED902382944C91A40EA3A
:100D3400074714E74145ABD2B8EB020E69EB0C024E
:100D440001381346A4E76046F0E7184695E767467E
:100D5400D8E781467BE7384645E7ACF1020C2B44E3
:100D640010E702382C4421E73746E8E6704700BF15
:100D740070B50646C0F30723074C2370074D0122C4
:100D84002146284602F0A2F926700122214628466F
:100D940002F09CF970BD00BF4C0000208C090020BB
:100DA400F0B58BB000240594069407940894099434
:100DB400244B5A6942F480025A615A6902F480024F
:100DC4000192019A5A6942F400225A615A6902F462
:100DD40000220292029A5A6942F480225A615A69A4
:100DE40002F480220392039A5A6942F400325A614F
:100DF4005B6903F400330493049B134F22464FF4BE
:100E04008051384603F068FC104D22464FF440717F
:100E1400284603F061FC4FF480530593012606969F
:100E24000794089405A9384603F080FB4FF44073F7
:100E3400059306960794089405A9284603F076FBC3
:100E44000BB0F0BD00100240000400480008004848
:100E540008B50E480E4B03604FF4827343600023C1
:100E640083604FF47062C2600361012242614FF4F7
:100E740000728261C3610362436283620722C262B9
:100E84000363436301F002FB08BD00BFD8000020E8
:100E94000038004008B50948094B03604FF4E133BA
:100EA400436000238360C36003610C224261836159
:100EB400C3610362436202F0B9FB08BD8C090020E0
:100EC400004C004030B59BB000241694179418943D
:100ED40019941394149415940C940D940E940F94E3
:100EE4001094119412942C22214601A803F008FDB9
:100EF400214D224B2B606C60AC600323EB602C61B2
:100F04006C61AC61284601F015FD4FF480531693D3
:100F140016A9284601F07AFE284601F025FD13940F
:100F24001494159413A9284602F044F860230C93F2
:100F340002230D930E940F9410941194129422464C
:100F44000CA9284601F09CFF019402940394049494
:100F540005944FF400530693079408944FF00073DC
:100F640009930A940B9401A9284602F053F82846E1
:100F740001F09AF81BB030BD48090020002C014054
:100F840038B50D4C0D4B23600D4B63600025A560F7
:100F94000123E36025616561A561E5612562204661
:100FA40001F0E8F82946204601F042F92946204696
:100FB40001F06FF938BD00BFF40800200054004070
:100FC4000E09002000B583B000224FF480510D4873
:100FD40003F082FB4FF47A73009301230A4A0B490E
:100FE4000B4801F0B0FA0A4801F009FC0128FAD1D3
:100FF40001224FF48051034803F06EFB03B05DF807
:1010040004FB00BF000400486C00002070000020B6
:10101400D800002070B5A0F5F64086B2A1F5F441E1
:101024008DB2084C4FF400532380FFF7CBFF6420AC
:1010340002F0ACFC2680FFF7C5FF2580FFF7C2FF56
:1010440070BD00BF7000002038B500F5406000019D
:1010540001F5C8646401A4B2064D2880FFF7B2FF0D
:10106400012002F093FC2C80FFF7ACFF012002F07A
:101074008DFC38BD7000002010B5A0F540500A4C1E
:101084002080FFF79FFF322002F080FC4FF45C4386
:101094002380FFF797FF054B1A88054B1A60012040
:1010A40002F074FC10BD00BF700000206C00002032
:1010B4008400002008B500F5C8604001024B188088
:1010C400FFF780FF08BD00BF7000002008B500F5E1
:1010D40040600001024B1880FFF774FF08BD00BF99
:1010E4007000002010B50D4C4FF458432380FFF7D7
:1010F40069FF012002F04AFC4FF45C432380FFF7B0
:1011040061FF074B1B88074C2360012002F03EFC63
:1011140023689B09044A136010BD00BF70000020BF
:101124006C000020CC0000208400002010B5A0F545
:1011340040500A4C2080FFF745FF012002F026FCB6
:101144004FF45C432380FFF73DFF054B1A88054BA2
:101154001A60012002F01AFC10BD00BF70000020CC
:101164006C0000208400002008B5A0F51050044B4A
:101174001880FFF727FF012002F008FC08BD00BF1C
:101184007000002030B5A7B0202200211EA803F073
:10119400B7FB00241794189419941A941B9458229A
:1011A400214601A803F0ACFB03231C934FF48033C6
:1011B4001D9301221F92102220920225229523932F
:1011C4001CA802F0F7FB0F231793189519941A948F
:1011D4001B94214617A802F029FF41F2280301932A
:1011E400069408940E9401A803F022F827B030BDA9
:1011F400F8B502F0A7FBFFF7C5FFFFF7D1FDFFF736
:1012040027FEFFF747FEFFF75DFEFFF7B9FE00215B
:10121400A34801F097FD0122A249A34801F07CFFF5
:1012240044E001224FF48071A04803F055FA3221C2
:101234000320FFF7EFFE00249D4B1C6001210846AC
:10124400FFF702FF2046FFF78FFF9A4B1C609A4B73
:101254001C6006E080B2FFF769FF964A1368013309
:101264001360944B1868B0F5806F05DA934B1A88B5
:10127400914B1B689A42EDDC421E8E4B1A60A0F221
:101284000110A92828D88E4961230B7001228648B1
:1012940001F01CFF8B4B1868FFF76AFD00228A4B94
:1012A4001A604FF48071814803F016FA864B1B686C
:1012B400013B062BFAD801A252F823F027120008AA
:1012C400ED120008FF13000829180008E7180008A9
:1012D400ED190008AD1A000879496E230B7001223C
:1012E400714801F0F3FED5E701224FF480716F4895
:1012F40003F0F2F9754B01221A6050E080B2FFF757
:1013040015FF6C4A1368013313606A4B1868B0F513
:10131400806F05DA694B1A88674B1B689A42EDDCCB
:101324000138644C206080B2FFF71EFF2068FFF78D
:101334001FFD674B1C68A4F11C03162B13D8634BC9
:101344001B681E2B0FDD5B4B1E68624D3046FFF79A
:1013540091F8D5E90023FEF741FFC5E900015E4B92
:101364001B68012B14D00334594B1C605B4B1B8846
:10137400574A106883420EDD80B2FFF7A7FE0020B3
:10138400FFF7F2FE00234B4A13604B4A1360BCE79D
:10139400534B1E60E7E74D4A136803331360514B08
:1013A4001B884A4A1068834206DD80B2FFF782FE3A
:1013B400474B01221A60D9E7464C00224A4BD4E934
:1013C4000001FFF7EBF9C4E90001484BC3E9000150
:1013D40000243D4B1C603A4962230B7001223248C1
:1013E40001F074FE374B1868FFF7C2FC22464FF435
:1013F40080712E4803F070F958E701224FF4807190
:101404002A4803F069F94FF40073394A1360394AE2
:1014140013600023384A13602C4A136076E02C4A88
:101424001368013313602D4B1B88294A10688342CB
:1014340068DD80B2FFF74AFE244B1A682F4B83FB0A
:101444000213A3EBE27303EB4303D31A012B0BD177
:101454001F4B1A68294B83FB0213A3EBE27303EBC4
:101464004303D31A012BDAD00020FFF77DFE0020BE
:10147400FFF702FE104C25684FF44870FFF7FCFD9F
:101484002268632DCBDC0D4B1B881D4909885B1A30
:101494009342C4DA184A136801331360BFE700BFEC
:1014A40048090020480000208C090020000800485A
:1014B40074000020D4000020840000201A000020C2
:1014C4004C00002004000020D00000205000002028
:1014D40088000020980000207C00002008000020E4
:1014E400780000200000002000005240A0000020EE
:1014F40088090020FC090020680000205655555535
:10150400180000209E4A1368013313609D4B1B880A
:101514009B4A1068834240F3BD8080B2FFF7CAFD46
:10152400994B00221A607EE7974A136801331360CF
:10153400964B1B88944A1068834235DD80B2FFF7CE
:10154400C5FD8F4B1A68924B83FB0213A3EBE27326
:1015540003EB4303D31A012B0BD18B4B1A688C4B2F
:1015640083FB0213A3EBE27303EB4303D31A012BB4
:10157400DAD00020FFF7F8FD0020FFF77DFD854C51
:1015840025684FF44870FFF777FD2268632DCBDCA4
:10159400814B1B88814909885B1A9342C4DA804ACB
:1015A400136801331360BFE7754A1368013313608E
:1015B400744B1B88724A1068834206DD80B2FFF7C1
:1015C40079FD714B00221A60B2E70023754A13605B
:1015D4006B4A136043E06C4A1368013313606B4B2E
:1015E4001B88694A1068834235DD80B2FFF76EFDBF
:1015F400634B1A68664B83FB0213A3EBE27303EBA2
:101604004303D31A012B0BD15F4B1A68604B83FB46
:101614000213A3EBE27303EB4303D31A012BDAD0D7
:101624000020FFF7A1FD0020FFF726FD594C256897
:101634004FF44870FFF720FD2268632DCBDC564B36
:101644001B88564909885B1A9342C4DA554A1368C1
:1016540001331360BFE74A4A136801331360494BEF
:101664001B88474A1068834206DD80B2FFF722FDDB
:10167400454B00221A60B2E74B4B1B68484A12687C
:10168400934214D249490B684948006803440B60EB
:10169400454B1A60464B1B68042B15D95B08444A1A
:1016A400136000233E4A1360354A136080E73D4AC5
:1016B40012689342EED23D490B683D4800681B1AFC
:1016C4000B60394B1A60E5E7374B1A68394B1A60DF
:1016D4002B4B00221A6083E0374B40F2FF121A6052
:1016E400354C2088FFF740FD2068FFF741FB264A70
:1016F400136801331360254B1B88234A1068834207
:101704006ADD80B2FFF7E2FC1D4B1A68204B83FBB5
:101714000213A3EBE27303EB4303D31A012B0BD1A4
:10172400194B1A681A4B83FB0213A3EBE27303EB06
:101734004303D31A012BCFD00020FFF715FD00205F
:10174400FFF79AFC134D2C684FF44870FFF794FC94
:101754002A68632C0BDC104B1B88104909885B1A20
:10176400934204DA144B40F2FF121A60B8E7632C78
:1017740024DC632A22DC104B00221A60B0E700BF8D
:1017840050000020000000208800002008000020F5
:1017940056555555840000201A00002018000020DA
:1017A40060000020640000206800002088090020F8
:1017B400FC0900205C000020D4000020A44B1B88FE
:1017C400A44909885B1AA3428ADA934288DAA24BB5
:1017D40040F2FF321A6083E7A04A136801331360B2
:1017E4009F4B1B889D4A1068834206DD80B2FFF739
:1017F40061FC9C4B00221A607DE700249A4B1C601C
:101804009A4964230B700122994801F05FFC994BBB
:101814001868FFF7ADFA22464FF48071964802F03B
:101824005BFF43E501224FF48071934802F054FFBB
:101834008A4B00221A6032E080B2FFF777FC8F4BAC
:101844001968854A136801331360834B1868B0F52F
:10185400806F06DA7E4B1B887E4A12889B1A8B4265
:10186400EADC441EA0B2FFF77FFC2046FFF780FAB3
:101874007C4A136801331360814B1B88794A1068D2
:10188400834208DD80B2FFF721FCFFF72BFC002127
:10189400714B1960D9E7714A136801331360704BB7
:1018A4001B886E4A1068834206DD80B2FFF702FC93
:1018B4006C4B00221A60DFE700246B4B1C606B4901
:1018C40065230B7001226A4801F000FC694B18681B
:1018D400FFF74EFA22464FF48071674802F0FCFE8F
:1018E400E4E401224FF48071634802F0F5FE4FF402
:1018F400FA7002F04BF8634B00221A60624B00202E
:101904000021C3E90001554B01221A603EE0033473
:10191400544B1C605A4B1B88524A1068834231DD79
:1019240080B2FFF7D3FB574C2368584A32F81310A0
:10193400013332F8130040EA0120474B186080B2AB
:10194400FFF712FC236802332360464B1C68A4F1A2
:101954001C03162BDBD8414B1B681E2BD7DD3E4BDB
:101964001E68494D3046FEF785FDD5E90023FEF794
:1019740035FCC5E90001464B1B68012BC7D1454B1B
:101984001E60C4E7354A136803331360344B1B8865
:10199400324A1068834206DD80B2FFF78BFB314B7D
:1019A40001221A60B6E7384C00223B4BD4E900010F
:1019B400FEF7F4FEC4E90001384BC3E9000100243A
:1019C400294B1C60294963230B700122284801F02C
:1019D4007DFB284B1868FFF7CBF922464FF4807142
:1019E400254802F079FE61E4234C01224FF4807112
:1019F400204602F071FE1D4966230B7001221C482B
:101A040001F064FB1B4B1868FFF7B2F90022164B78
:101A14001A604FF48071204602F05EFE204B4FF4B2
:101A240016721A601F4B1B68142B0AD84FF4FA70F5
:101A340001F0ACFF00224FF480710F4802F04CFE1D
:101A440034E400224FF48071204602F045FEEDE7B5
:101A54001A00002018000020D400002050000020AC
:101A64000000002088000020D00000204C0000204E
:101A74008C09002004000020000800488400002095
:101A84000800002054000020980000203C010020A1
:101A94007C0000207800002000005240A0000020BC
:101AA400AC000020580000207B4C03220023D4E922
:101AB4000001FEF7A3FFC4E90001784B1B68012B6A
:101AC40000F24A81764B00221A6045E1754B0022F0
:101AD4001A6059E10130744B186080B2FFF726FB9D
:101AE400724B1B88724A12889B1A724A126893427C
:101AF40004DD6D4B1868B0F57F7FEBDB6A4A136831
:101B0400013B1360684B1888FFF72EFB6A4B1A6879
:101B14006A4B83FB0213A3EBE27303EB4303D31A75
:101B2400012B4DD0604B1868FFF722F9644A136803
:101B340001331360634B1B88614A1068834264DD80
:101B440080B2FFF7C3FAFFF7CDFA5A4B1868564B29
:101B540018600028D6D040F2FF339842D2D080B229
:101B6400FFF7E4FA514B1B88514A1188581A514A1D
:101B74001268904204DD4C480068B0F57F7FAFDB0B
:101B84000B449A42BEDD484B1B68042BBADD474B1D
:101B94001B88474A12881344464A126893420ADA59
:101BA400414B1868042806DD01383F4B186080B2A9
:101BB400FFF7BCFAEBE73C4A136801331360A1E773
:101BC4003F4B19683D4B83FB0103A3EBE17303EB2C
:101BD4004303CB1A012BA5D11B29A3DD3229A1DC98
:101BE4001E2A9FDD304B1D68374C2846FEF742FC09
:101BF400D4E90023FEF7F2FAC4E90001274B1B687D
:101C0400012B8FD1274B1D608CE72B4A13680133BE
:101C140013602E4B1B88284A1068834206DD80B26D
:101C2400FFF748FA264B00221A6083E7284B18680E
:101C3400FFF79EF800224FF48071264802F04CFD15
:101C4400254B00221A60204E0022244BD6E90001C5
:101C5400FEF7A4FD04460D46C6E90045FEF7AEFEB8
:101C6400104B186020462946FEF780FEFFF780F8E7
:101C74001B4B1868FFF77CF8084B1C680A2C68D9C2
:101C84003B2C63D9C72C2FD860D1D6E90001FEF7CD
:101C94006DFE144B186059E0B80000207C00002051
:101CA4008000002078000020D40000201A000020CA
:101CB400180000208400002050000020565555557F
:101CC4008800002008000020980000200000002068
:101CD4008809002000080048A800002000005240A5
:101CE40004000020C80000202E4B1868FEF7C2FB39
:101CF4002D4BD3E90023FEF76FFAFEF737FE2B4B8B
:101D040018602B4B1B6803FB00F32A4A136002463E
:101D1400C317294F39687868561843EB00002749E0
:101D2400096806FB01F1264D2960264D2968511AE0
:101D3400DFF8ACC0DCF800C001FB0CF1DFF8A4C094
:101D4400CCF800103E607860C5E900231E4B0022E9
:101D54001A6001341D4B1C601D4B1B68072B17D1E7
:101D6400B3B101224FF480711A4802F0B5FC174B4D
:101D74001B68194A002111600B4A00200021C2E9A6
:101D84000001012B3FF4A2AE144B00221A6040E77D
:101D940000220F4B1A604FF480710E4802F09CFC35
:101DA400FFF784BAC800002098000020B00000208B
:101DB4001400002094000020B8000020100000202F
:101DC40090000020C0000020AC0000207C00002017
:101DD400D0000020000800485400002050000020DB
:101DE4000C0000208C00002008B54F4B1B68002B12
:101DF40044D14E4B1B784E4A1370433B142B45D8A9
:101E0400DFE803F0384444444444444444444444F0
:101E140044440B0F1B13172D3400434B01221A604B
:101E240034E0414B02221A6030E03F4B03221A6037
:101E34002CE03D4B04221A6028E03E4B00221A603D
:101E44003D4973230B7001223C4801F03FF93C4BA0
:101E54001868FEF78DFF344B09221A6016E0354BE3
:101E640000221A60304B0A221A600FE02E4B072220
:101E74001A600BE02C4B08221A6007E0062B0BD0EB
:101E8400072B19D0092B21D00A2B39D0012227493D
:101E94002A4801F041F908BD244B1B78244A1370E9
:101EA400572B05D0432BF1D11F4B08221A60EDE7C5
:101EB4001D4B07221A60E9E71C4B1B781C4A137060
:101EC400582BE3D1184B00221A60DFE7174B1A781E
:101ED400174B1A70FF2A0FD016490B68194820F8BF
:101EE400132001330B60B3F5777FCFD100220A6052
:101EF4000D4B05221A60C9E70B4B00221A60C5E797
:101F04000A4B19780A4B19700A4A13680E4840F8AC
:101F1400231001331360022BB8D1134600221A6038
:101F2400014B06221A60B1E7D000002048000020CF
:101F340044000020540000204C0000208C090020A4
:101F4400040000203C010020400900207047FEE707
:101F5400FEE7FEE7FEE770477047704708B501F0FB
:101F640003FD08BD08B5024801F016FC08BD00BF1A
:101F74008C09002082B00A4B9A6942F001029A61EE
:101F84009A6902F001020092009ADA6942F08052E2
:101F9400DA61DB6903F080530193019B02B070475F
:101FA4000010024010B588B00023039304930593F6
:101FB400069307930268134B9A4201D008B010BDF0
:101FC400114C636943F480236361636903F48023E0
:101FD4000193019BC02303931223049301230593CC
:101FE400032306930423079303A9084802F09EFAE7
:101FF400E36943F40013E361E36903F40013029318
:10200400029BDBE70054004000100240000400483B
:1020140000B589B0002303930493059306930793B3
:102024000268144B9A4202D009B05DF804FB03F530
:10203400EC33DA6942F48042DA61DA6902F480420C
:102044000192019A5A6942F480225A615B6903F44D
:1020540080230293029B4FF460430393022304936F
:10206400032306930523079303A9034802F05EFAAA
:10207400DAE700BF00380040000400480268094B5A
:102084009A4200D0704782B003F564439A6942F4DF
:1020940000629A619B6903F400630193019B02B09F
:1020A400704700BF002C014000B587B000230193A6
:1020B400029303930493059302680D4B9A4202D052
:1020C40007B05DF804FB03F564435A6942F4002247
:1020D4005A615B6903F400230093009B012301937D
:1020E40002230293059301A9024802F01FFAE7E7CD
:1020F400002C01400008004800B589B00023039378
:1021040004930593069307930268184B9A4202D0EE
:1021140009B05DF804FB03F5E233DA6942F4002206
:10212400DA61DA6902F400220192019A5A6942F4EE
:1021340000225A615B6903F400230293029B4FF46B
:102144004063039302230493032306930523079315
:1021540003A9074802F0EAF900221146342002F0EC
:10216400F7FA342002F028FBD2E700BF004C00400D
:1021740000080048002859D010B5044690F84130B2
:10218400002B43D0242384F841302268136823F0C1
:10219400010313606368226823F07063136122688B
:1021A400936823F400439360E368012B33D0A3685E
:1021B400226843F404439360E368022B31D022681D
:1021C400536843F0007343F4004353602268D368B8
:1021D40023F40043D360236962691343A16922682D
:1021E40043EA0123D360E369216A22680B43136045
:1021F4002268136843F00103136000206064202305
:1022040084F84130206384F8420010BD80F84030E7
:10221400FFF7C8FEB6E7A368226843F4004393605F
:10222400CAE723684FF400625A60C8E70120704788
:1022340090F84130DBB2202B27D190F84030012BAD
:1022440025D010B4012380F84030242380F8413095
:102254000468226822F0010222600468226822F4E1
:1022640080522260026813680B431360026813688B
:1022740043F001031360202380F84130002380F8E9
:10228400403018465DF8044B704702207047022026
:10229400704790F84130DBB2202B25D190F84030C4
:1022A400012B23D010B4012380F84030242380F87C
:1022B40041300468226822F0010222600268136837
:1022C40023F4706343EA012313600268136843F044
:1022D40001031360202380F84130002380F840304C
:1022E40018465DF8044B704702207047022070477F
:1022F400F8B505460F4616461C4639E02CB101F0E8
:102304003FFB069BC01AA04232D32A68536823F0CD
:10231400E00353606B68B3F5827F0BD0AB6AB3F50F
:10232400005F14D0012385F85D30002385F85C300C
:10233400032025E0AB68B3F5004F02D0B3F5806FFE
:10234400ECD12A68136823F040031360E6E72A6897
:10235400136823F4005313602A68136843F400538A
:102364001360DFE70123B34209D0B4F1FF3FC5D1C5
:102374002B689B6837EA0303F4D00023F3E70020BB
:10238400F8BDF0B583B007460C4615461E4602E07C
:10239400B6F1FF3F10D13A6893682340AB423FD077
:1023A400B4F5C06FF4D1002DF2D1137BDBB28DF8FC
:1023B40007309DF80730EBE72EB101F0E1FA089BF6
:1023C400C01AB042E7D33A68536823F0E00353607D
:1023D4007B68B3F5827F0BD0BB6AB3F5005F14D082
:1023E400012387F85D30002387F85C30032018E070
:1023F400BB68B3F5004F02D0B3F5806FECD13A68F7
:10240400136823F040031360E6E73A68136823F483
:10241400005313603A68136843F400531360DFE712
:10242400002003B0F0BD70B582B004460D461646D8
:1024340000920B4600224FF4C051FFF7A2FFB8B937
:1024440000962B46002280212046FFF751FFB8B9A1
:1024540000962B4600224FF4C0612046FFF791FFFF
:10246400034650B1236E43F020032366032304E0A4
:10247400236E43F0200323660323184602B070BD85
:10248400236E43F0200323660323F6E7002858D085
:1024940010B504460023836290F85D30002B45D0CC
:1024A400022384F85D302268136823F0400313602C
:1024B400E368B3F5E06F3ED90022B3F5706F04D042
:1024C400B3F5E06F01D00021A162216B21B9B3F50E
:1024D400E06F33D9022323636368A1680B43216946
:1024E4000B4361690B43A16901F400710B43E1697A
:1024F4000B43216A0B43A06A216803430B60638B7F
:1025040003F00403616A0B43616B0B43E1680B4303
:10251400216813434B602268D36923F40063D361B9
:1025240000202066012384F85D3010BD80F85C3003
:10253400FFF76EFDB4E74FF48052BEE70123236337
:10254400CAE7012070472DE9F8439946089D90F8A1
:102554005C30012B00F0518104460F4616460123DE
:1025640080F85C3001F00CFA804694F85D30DBB200
:102574006268012B0AD0B2F5827F40F02981A268FB
:10258400002A40F02E81042B40F02D81002F00F012
:102594002C81002E00F02B81B9F1000F00F029816D
:1025A40094F85D30DBB2042B02D0052384F85D304F
:1025B400002323662664A4F84690A4F84490A763F5
:1025C400A4F83E90A4F83C90E3642365E368B3F573
:1025D400E06F04D8B4F846309BB2012B22D92268AC
:1025E400536823F48053536023681A6812F0400F31
:1025F40003D11A6842F040021A60E368B3F5E06F51
:1026040054D963681BB1E38F9BB2012B07D12368B4
:1026140037F8022BDA60E38F013B9BB2E3874FF07C
:1026240001091CE02268536843F480535360DBE7DC
:10263400B4F846309BB27BB123689A6812F0010F5C
:102644000AD0DB6826F8023BB4F84630013B9BB263
:10265400A4F846304FF00109B5F1FF3F1ED1E38FD6
:102664009BB22BB9B4F846309BB2002B00F0A48087
:10267400B9F1000FDCD0E38F9BB2002BD8D02368D4
:102684009A6812F0020FD3D037F8022BDA60E38F86
:10269400013B9BB2E3874FF00009C9E701F070F9F1
:1026A400A0EB0800A842DAD3032092E063681BB1D0
:1026B400E38F9BB2012B0BD1E38F9BB2012B0AD981
:1026C400236837F8022BDA60E38F023B9BB2E3877F
:1026D4004FF0010928E0236817F8012B1A73E38FE0
:1026E400013B9BB2E387F3E717F8012B1A73E38FDF
:1026F400013B9BB2E3874FF0000935E02268536841
:1027040043F4805353604FF001090AE01B7B06F841
:10271400013BB4F84630013B9BB2A4F846304FF07D
:102724000109B5F1FF3F3FD1E38F9BB223B9B4F860
:1027340046309BB2002B3FD0B9F1000F14D0E38F89
:102744009BB28BB123689A6812F0020F0CD0E28F0F
:1027540092B2012AC8D937F8022BDA60E38F023B20
:102764009BB2E3874FF00009B4F846309BB2002BCC
:10277400D7D023689A6812F0010FD2D0B4F846205B
:1027840092B2012AC2D9DB6826F8023BB4F846307B
:10279400023B9BB2A4F84630B4F846309BB2012BFE
:1027A400ACD94FF00109BCE701F0EAF8A0EB08004E
:1027B400A842B9D303200CE0424629462046FFF73D
:1027C40032FE08B120232366236EA3B9002000E063
:1027D4000220012384F85D30002384F85C30BDE8D6
:1027E400F8830220F5E70220F3E70120F1E7012056
:1027F400EFE70120EDE70120EBE70220EFE790F897
:102804005D00704710B4036A046A24F00104046292
:10281400846924F0F00444EA021223F00A030B430F
:10282400826103625DF8044B704710B4036A23F0BD
:10283400100303628469036A24F4704444EA023294
:1028440023F0A00343EA0113826103625DF8044BA1
:102854007047836823F0700341F0070119438160D6
:10286400704770470368324A904212D0B0F1804FEB
:102874000FD0A2F5943290420BD002F580629042C0
:1028840007D002F59632904203D002F5E05290420E
:1028940003D123F070034A681343254A90421ED0A3
:1028A400B0F1804F1BD0A2F59432904217D002F5BC
:1028B4008062904213D002F5963290420FD002F516
:1028C400406290420BD002F58062904207D002F53C
:1028D4008062904203D002F50062904203D123F457
:1028E4004073CA68134323F080034A6913430360A7
:1028F4008B68C3620B6883620D4B984213D003F557
:10290400006398420FD003F5406398420BD003F55F
:102914008063984207D003F58063984203D003F59F
:102924000063984201D10B6903630123436170473B
:10293400002C0140B0B110B5044690F83D3063B1AD
:10294400022384F83D30214651F8040BFFF78AFF37
:10295400012384F83D30002010BD80F83C30FFF79F
:102964008DFBEDE701207047B0B110B5044690F837
:102974003D3063B1022384F83D30214651F8040B05
:10298400FFF770FF012384F83D30002010BD80F86C
:102994003C30FFF766FFEDE70120704730B4036A6F
:1029A40023F001030362036A4468826922F48032DB
:1029B40022F073020D682A4323F002038D682B432F
:1029C400204DA84213D005F50065A8420FD005F5A7
:1029D4004065A8420BD005F58065A84207D005F5EF
:1029E4008065A84203D005F50065A84205D123F00F
:1029F4000803CD682B4323F00403124DA84213D0DF
:102A040005F50065A8420FD005F54065A8420BD036
:102A140005F58065A84207D005F58065A84203D076
:102A240005F50065A84205D124F440754C692C4392
:102A34008D692C43446082614A684263036230BCFE
:102A4400704700BF002C014030B4036A23F0100328
:102A54000362036A4468826922F0807222F4E642C7
:102A64000D6842EA052223F020038D6843EA05132A
:102A74001B4DA84207D005F50065A84203D005F513
:102A8400E055A84206D123F08003CD6843EA05133C
:102A940023F04003124DA84213D005F50065A84267
:102AA4000FD005F54065A8420BD005F58065A84216
:102AB40007D005F58065A84203D005F50065A84256
:102AC40007D124F440644D6944EA85048D6944EADD
:102AD4008504446082614A688263036230BC704743
:102AE400002C014030B4036A23F480730362036A48
:102AF4004468C26922F4803222F073020D682A43CA
:102B040023F400738D6843EA05231C4DA84207D0C3
:102B140005F50065A84203D005F5E055A84206D1A5
:102B240023F40063CD6843EA052323F48063134D43
:102B3400A84213D005F50065A8420FD005F54065FD
:102B4400A8420BD005F58065A84207D005F580653D
:102B5400A84203D005F50065A84207D124F44054E7
:102B64004D6944EA05148D6944EA05144460C26160
:102B74004A68C263036230BC704700BF002C014046
:102B840030B4036A23F480530362036A4468C2695D
:102B940022F0807222F4E6420D6842EA052223F410
:102BA40000538D6843EA0533114DA84213D005F54F
:102BB4000065A8420FD005F54065A8420BD005F585
:102BC4008065A84207D005F58065A84203D005F5C5
:102BD4000065A84204D124F480444D6944EA851474
:102BE4004460C2614A680264036230BC704700BF3B
:102BF400002C014010B4846824F47F4442EA032387
:102C04000B43234383605DF8044B704790F83C30DA
:102C1400012B00F0828010B50446012380F83C307B
:102C2400022380F83D30026890683D4B0340936076
:102C34000B68402B5DD010D9702B40D01FD8502B7F
:102C44004DD0602B34D1CA6849682068FFF7EDFD88
:102C540060212068FFF7FDFD2AE0102B53D008D92E
:102C6400202B55D0302B23D130212068FFF7F1FDE4
:102C74001EE0EBB900212068FFF7EBFD18E0B3F587
:102C8400805F0ED0B3F5005F12D1CB684A688968C3
:102C94002068FFF7AFFF2268936843F48043936092
:102CA40006E02268936823F4803323F007039360DB
:102CB400012384F83D30002084F83C0010BDCB682B
:102CC4004A6889682068FFF795FF2268936823F4AF
:102CD400803323F0770343F077039360E8E7CA680F
:102CE40049682068FFF78EFD50212068FFF7B1FD89
:102CF400DEE7CA6849682068FFF784FD4021206840
:102D0400FFF7A7FDD4E710212068FFF7A2FDCFE766
:102D140020212068FFF79DFDCAE70220704700BF0D
:102D24008800FEFF10B4012303FA01F4036A23EAC6
:102D340004030362036A8A40134303625DF8044B8D
:102D44007047000010B5044601220068FFF7EAFF4F
:102D54002368114A934213D002F5006293420FD0C4
:102D640002F5406293420BD002F58062934207D091
:102D740002F58062934203D002F50062934203D1CC
:102D84005A6C42F400425A642268136843F0010307
:102D94001360002010BD00BF002C014030B4036A52
:102DA40023F480330362036A4468426D22F4803260
:102DB40022F070020D682A4323F400338D6843EA3D
:102DC4000543114DA84213D005F50065A8420FD064
:102DD40005F54065A8420BD005F58065A84207D0EB
:102DE40005F58065A84203D005F50065A84204D125
:102DF40024F480344D6944EA0524446042654A68F9
:102E04008265036230BC7047002C014030B4036A11
:102E140023F480130362036A4468426D22F08072D3
:102E240022F4E0420D6842EA052223F400138D687F
:102E340043EA0553114DA84213D005F50065A84295
:102E44000FD005F54065A8420BD005F58065A84272
:102E540007D005F58065A84203D005F50065A842B2
:102E640004D124F480244D6944EA852444604265F5
:102E74004A68C265036230BC704700BF002C014041
:102E840038B590F83C30012B00F092800D46044692
:102E9400012380F83C30022380F83D30142A1ED8E8
:102EA400DFE802F00B1D1D1D241D1D1D381D1D1DF9
:102EB4004B1D1D1D5F1D1D1D72000068FFF76EFD7B
:102EC4002268936943F0080393612268936923F0AD
:102ED400040393612268936929690B439361012375
:102EE40084F83D30002084F83C0038BD0068FFF7CA
:102EF400ABFD2268936943F400639361226893698C
:102F040023F48063936122689369296943EA012366
:102F14009361E4E70068FFF7E5FD2268D36943F0B5
:102F24000803D3612268D36923F00403D3612268C0
:102F3400D36929690B43D361D1E70068FFF720FE09
:102F44002268D36943F40063D3612268D36923F40C
:102F54008063D3612268D369296943EA0123D36179
:102F6400BDE70068FFF71AFF2268536D43F00803BA
:102F740053652268536D23F0040353652268536D2F
:102F840029690B435365AAE70068FFF73FFF2268EE
:102F9400536D43F4006353652268536D23F48063D7
:102FA40053652268536D296943EA0123536596E703
:102FB40002209AE790F83C30012B26D030B401234C
:102FC40080F83C30026853689568114CA24207D0DF
:102FD40004F50064A24203D004F5E054A24203D1F4
:102FE40023F470034C68234323F070030C682343D9
:102FF40025F08004896821435360036899600023A5
:1030040080F83C30184630BC70470220704700BF3F
:10301400002C014090F83C30012B45D010B4012322
:1030240080F83C30CB6823F440738A68134323F45C
:1030340080634A68134323F400630A68134323F448
:1030440080530A69134323F400534A69134323F456
:1030540080438A6A134323F40043134323F4702305
:103064008A6943EA02430268104CA24207D004F57D
:103074000064A24203D004F5E054A2420CD123F42C
:1030840070034C6A43EA045323F08073CC692343EE
:1030940023F00073096A0B435364002380F83C3027
:1030A40018465DF8044B704702207047002C01401D
:1030B4000268136823F4907313600268936823F022
:1030C40001039360202380F86A30704790F86930D8
:1030D400DBB2202B18D1C9B1D2B190F86830012BE2
:1030E40018D0C164A0F85020A0F852200023C36671
:1030F400212280F8692080F8683001680A6842F06B
:1031040080020A6018467047022070470120704709
:10311400012070470220704790F86A30DBB2202B00
:1031240049D1002949D0002A49D090F86830012BB0
:1031340047D0012380F868304165A0F85820A0F8F2
:103144005A208368B3F5805F06D0A3B9036973B9C5
:10315400FF23A0F85C3011E0036923B940F2FF13A8
:10316400A0F85C300AE0FF23A0F85C3006E07F237F
:10317400A0F85C3002E0B3F1805F12D00023C36694
:10318400222280F86A2080F8683001688A6842F058
:1031940001028A6001680A6842F490720A60184663
:1031A400704703691BB97F23A0F85C30E6E73F232F
:1031B400A0F85C30E2E7022070470120704701204C
:1031C4007047022070477047704708B5406A002373
:1031D400A0F85A30A0F85230FFF7F6FF08BD0000FF
:1031E40010B5044683680269134342691343C269F4
:1031F400134301680868A04A024013430B60226825
:10320400536823F44053E1680B435360A369226A73
:103214001A4321688B6823F4306313438B6022685C
:10322400964B9A420DD0964B9A421DD0954B9A429A
:1032340043D0954B9A4258D0944B9A426DD0102368
:1032440027E003F558431B6B03F00303032B09D852
:10325400DFE803F00204067B01231AE0042318E0EC
:10326400082316E0102314E003F5E6331B6B03F484
:103274004033B3F5803F6AD007D9B3F5003F68D037
:10328400B3F5403F17D1022303E00BB9002300E05C
:103294001023E169B1F5004F69D0082B00F2E980F1
:1032A400DFE813F0AD00B900C500E700D100E70086
:1032B400E700E700DD001023EBE703F5E4331B6BC5
:1032C40003F44023B3F5802F45D007D9B3F5002F7D
:1032D40043D0B3F5402F06D10223DAE70BB900231C
:1032E400D7E71023D5E71023D3E703F5E2331B6BAD
:1032F40003F44013B3F5801F31D007D9B3F5001F91
:103304002FD0B3F5401F06D10223C2E70BB9002327
:10331400BFE71023BDE71023BBE703F5E0331B6BC6
:1033240003F44003B3F5800F1DD007D9B3F5000FA4
:103334001BD0B3F5400F06D10223AAE70BB9002333
:10334400A7E71023A5E71023A3E70223A1E704239B
:103354009FE708239DE704239BE7082399E70423B9
:1033640097E7082395E7042393E7082391E7082BBD
:1033740042D8DFE803F0051722412D4141413800CE
:1033840000F02AFF6268530803EB4003B3FBF2F337
:103394009BB2002023F00F02C3F3420313432268BD
:1033A400D36010BD00F02EFF6268530803EB4003A6
:1033B400B3FBF2F39BB20020ECE76268530803F519
:1033C400740303F51053B3FBF2F39BB20020E1E75F
:1033D40000F0F4FD6268530803EB4003B3FBF2F31F
:1033E4009BB20020D6E76268530803F58033B3FB31
:1033F400F2F39BB20020CDE701200023CAE700F0DE
:10340400EBFE636800EB5300B0FBF3F0236880B27B
:10341400D8600020C5E700F0F5FE636800EB5300B8
:10342400B0FBF3F0236880B2D8600020B9E761688C
:103434004B0803F5F40303F59053B3FBF1F39BB28C
:10344400D3600020ADE700F0B9FD636800EB5300E2
:10345400B0FBF3F0236880B2D8600020A1E7616874
:103464004B0803F50043B3FBF1F39BB2D360002098
:1034740097E7012095E700BFF369FFEF00380140AB
:103484000044004000480040004C00400050004010
:10349400436A13F0010F06D00268536823F4003323
:1034A400816A0B435360436A13F0020F06D002682B
:1034B400536823F48033C16A0B435360436A13F0A7
:1034C400040F06D00268536823F48023016B0B4376
:1034D4005360436A13F0080F06D00268536823F45C
:1034E4000043416B0B435360436A13F0100F06D043
:1034F4000268936823F48053816B0B439360436A9F
:1035040013F0200F06D00268936823F40053C16BB4
:103514000B439360436A13F0400F0AD00268536868
:1035240023F48013016C0B435360036CB3F5801FC9
:103534000BD0436A13F0800F06D00268536823F45B
:103544000023816C0B43536070470268536823F473
:10355400C003416C0B435360EBE72DE9F041054692
:103564000F4616469846069C2B68DB6937EA030328
:103574000CBF01230023B3421DD1B4F1FF3FF3D0AC
:103584002CB100F0FDF9A0EB0800A042ECD92A68A8
:10359400136823F4D07313602A68936823F001033B
:1035A4009360202385F8693085F86A30002385F814
:1035B4006830032000E00020BDE8F08130B583B01E
:1035C40004460023C36600F0DBF9054623681B6844
:1035D40013F0080F0ED123681B6813F0040F17D1E2
:1035E400202384F8693084F86A30002084F8680065
:1035F40003B030BD6FF07E430093034600224FF4C6
:1036040000112046FFF7A9FF0028E4D00320EFE7CC
:103614006FF07E4300932B4600224FF48001204636
:10362400FFF79BFF0028DBD00320E1E778B310B558
:10363400044690F869300BB3242384F86930226877
:10364400136823F0010313602046FFF7C9FD012826
:1036540013D0636ABBB92268536823F49043536060
:103664002268936823F02A0393602268136843F066
:10367400010313602046FFF7A1FF10BD80F86830F6
:10368400FEF73AFDD8E72046FFF702FFE3E7012003
:10369400704790F86930DBB2212B2ED1B0F852304C
:1036A4009BB25BB90268136823F08003136002685D
:1036B400136843F040031360002070478368B3F538
:1036C400805F0DD0C36C5A1CC26402681B781385DA
:1036D400B0F85230013B9BB2A0F852300020704742
:1036E4000369002BEED1C36C02681B88C3F3080383
:1036F4001385C36C0233C364EAE70220704708B53C
:1037040001680B6823F040030B60202380F86930C4
:10371400FFF759FD002008BDB0F85C3090F86A202E
:10372400D2B2222A31D110B50268928C92B2816849
:10373400B1F5805F0ED0DBB2416D4C1C4465134083
:103744000B70B0F85A30013B9BB2A0F85A305BB111
:10375400002010BD01690029EDD1416D13400B809B
:10376400436D02334365ECE70268136823F49073F6
:1037740013600268936823F001039360202380F8A8
:103784006A30FEF731FB0020E3E70268936943F0F7
:10379400080393610220704738B504460268D36970
:1037A400116813F00F0505D113F0200F02D011F0AA
:1037B400200F1BD190682DB110F0010519D111F41F
:1037C400907F16D113F4801F02D010F4800F7BD1A8
:1037D40013F0800F03D011F0800F40F0818013F0BC
:1037E400400F02D011F0400F7ED138BDFFF794FF97
:1037F400FBE713F0010F07D011F4807F04D0012000
:103804001062E26E0243E26613F0020F07D035B194
:10381400226802201062E26E42F00402E26613F0B3
:10382400040F07D035B1226804201062E26E42F022
:103834000202E26613F0080F09D011F0200F00D144
:103844002DB1226808201062E26E0243E266E26E45
:10385400002ACAD013F0200F02D011F0200F21D17A
:10386400E36E13F0080F04D123689B6813F0400F34
:1038740024D02046FFF71CFC23689A6812F0400FFE
:1038840018D09A6822F040029A60636E73B1184AA5
:103894005A63606E00F025FF0028A6D0606E436B6B
:1038A4009847A2E72046FFF737FFD9E72046FFF7FE
:1038B4008BFC9AE72046FFF787FC96E72046FFF744
:1038C40083FC0023E36690E74FF480131362202304
:1038D40084F8693084F86A30204600F00BF884E7F5
:1038E4002046FFF7D6FE80E72046FFF708FF7CE777
:1038F400CF3100087047000010B504460E4B18780D
:103904004FF47A73B3FBF0F30C4A1068B0FBF3F096
:1039140000F05EFF68B90F2C01D901200AE00022F3
:1039240021464FF0FF3000F013FF054B1C600020D0
:1039340000E0012010BD00BF1C0000202400002076
:103944002000002008B5074A136843F010031360F1
:10395400032000F0EBFE0020FFF7CEFFFEF70AFB8A
:10396400002008BD00200240034A1168034B1B7865
:103974000B441360704700BF000A00201C000020A5
:10398400014B1868704700BF000A002038B5044690
:10399400FFF7F6FF0546B4F1FF3F02D0044B1B7856
:1039A4001C44FFF7EDFF401BA042FAD338BD00BF13
:1039B4001C000020002800F0ED8270B582B004469F
:1039C400036813F0010F3DD0C74B5B6803F00C0391
:1039D400042B20D0C44B5B6803F00C03082B13D0DA
:1039E4006368B3F5803F6AD0002B40F08D8003F10B
:1039F400804303F504331A6822F480321A601A688B
:103A040022F480221A605FE0B74B5B6803F4C03392
:103A1400B3F5803FE4D14FF4003393FAA3F3B24BF0
:103A240019684FF4003393FAA3F3B3FA83F303F062
:103A34001F03012202FA03F30B4203D06368002B35
:103A440000F0AA82236813F0020F00F0C080A64B96
:103A54005B6813F00C0F00F09780A34B5B6803F0D6
:103A64000C03082B00F08880E368002B00F0ED8045
:103A7400012292FAA2F3B3FA83F303F1845303F518
:103A840084139B001A60FFF77BFF0546022393FA19
:103A9400A3F3954B1968022393FAA3F3B3FA83F3C0
:103AA40003F01F03012202FA03F30B4240F0BE802D
:103AB400FFF766FF401B0228E8D9032075E28A4A13
:103AC400136843F4803313606368002B36D0FFF728
:103AD40057FF05464FF4003393FAA3F3824B19685A
:103AE4004FF4003393FAA3F3B3FA83F303F01F0301
:103AF400012202FA03F31942A4D1FFF741FF401B4C
:103B04006428E7D9032050E2B3F5A02F09D0764BFF
:103B14001A6822F480321A601A6822F480221A6029
:103B2400D2E703F18043A3F53C331A6842F48022C0
:103B34001A601A6842F480321A60C5E7FFF720FF62
:103B440005464FF4003393FAA3F3674B19684FF417
:103B5400003393FAA3F3B3FA83F303F01F030122B0
:103B640002FA03F319423FF46DAFFFF709FF401B5C
:103B74006428E6D9032018E25B4B5B6803F4C03386
:103B8400B3F5004F7FF470AF022393FAA3F3564BBF
:103B94001968022393FAA3F3B3FA83F303F01F0320
:103BA400012202FA03F3194203D0E368934240F07E
:103BB400F5814D48036823F0F8032169F82292FA4D
:103BC400A2F2B2FA82F201FA02F21343036023680A
:103BD40013F0080F00F08C806369002B5CD0012186
:103BE40091FAA1F2B2FA82F2404B13449B0019609D
:103BF400FFF7C6FE0546022393FAA3F293FAA3F253
:103C040093FAA3F2384A516A93FAA3F3B3FA83F30B
:103C140003F01F03012202FA03F30B4268D1FFF7FA
:103C2400AFFE401B0228E6D90320BEE12E480368FC
:103C340023F0F8032169F82292FAA2F2B2FA82F28E
:103C440001FA02F213430360C1E7012393FAA3F3D9
:103C5400B3FA83F303F1845303F584139B00002226
:103C64001A60FFF78DFE0546022393FAA3F31E4B59
:103C74001968022393FAA3F3B3FA83F303F01F033F
:103C8400012202FA03F31942A1D0FFF779FE401B87
:103C94000228E9D9032088E1012292FAA2F2B2FAB9
:103CA40082F2124B13449B0000221A60FFF768FE55
:103CB4000546022393FAA3F293FAA3F293FAA3F22A
:103CC400094A516A93FAA3F3B3FA83F303F01F0387
:103CD400012202FA03F30B420AD0FFF751FE401B04
:103CE4000228E6D9032060E10010024020819010F0
:103CF400236813F0040F00F0A980AE4BDB6913F0C6
:103D0400805F0BD1AB4BDA6942F08052DA61DB6938
:103D140003F080530193019B012500E00025A64B8D
:103D24001B6813F4807F10D0A368012B21D063BBE0
:103D340003F1804303F504331A6A22F001021A6284
:103D44001A6A22F004021A6218E09B4A136843F4C8
:103D540080731360FFF714FE0646974B1B6813F439
:103D6400807FE1D1FFF70CFE801B6428F5D9032086
:103D74001BE1904A136A43F001031362A368002B0A
:103D84003CD0FFF7FDFD06462EE0052B09D0894BFC
:103D94001A6A22F001021A621A6A22F004021A62F2
:103DA400ECE7844B1A6A42F004021A621A6A42F07F
:103DB40001021A62E2E7022393FAA3F37D4B596AE4
:103DC400022393FAA3F3B3FA83F303F01F0301224C
:103DD40002FA03F3194238D1FFF7D2FD801B41F2F6
:103DE4008833984200F2DC80022393FAA3F293FA18
:103DF400A3F3002BDFD06F4B196AE1E7FFF7C0FD97
:103E0400064618E0022393FAA3F36A4B596A022385
:103E140093FAA3F3B3FA83F303F01F03012202FA24
:103E240003F3194211D0FFF7ABFD801B41F2883335
:103E3400984200F2B780022393FAA3F293FAA3F311
:103E4400002BDFD05B4B196AE1E7B5BBA369002BFC
:103E540000F0AA80574A526802F00C02082A00F0C7
:103E6400A680022B2FD04FF0807393FAA3F3B3FAFA
:103E740083F303F1845303F584139B0000221A6037
:103E8400FFF77EFD04464FF0007393FAA3F3494B0A
:103E940019684FF0007393FAA3F3B3FA83F303F0B2
:103EA4001F03012202FA03F3194271D0FFF768FDE0
:103EB400001B0228E7D9032077E03E4AD36923F0A8
:103EC4008053D361C2E74FF0807393FAA3F3B3FA3C
:103ED40083F303F1845303F584139B0000221A60D7
:103EE400FFF74EFD05464FF0007393FAA3F3314BF1
:103EF40019684FF0007393FAA3F3B3FA83F303F052
:103F04001F03012202FA03F3194206D0FFF738FD1A
:103F1400401B0228E7D9032047E0264AD36A23F04E
:103F24000F03616A0B43D362536823F47613216A47
:103F3400E06901430B4353604FF0807393FAA3F39A
:103F4400B3FA83F303F1845303F584139B00012232
:103F54001A60FFF715FD04464FF0007393FAA3F3BC
:103F6400144B19684FF0007393FAA3F3B3FA83F375
:103F740003F01F03012202FA03F3194206D1FFF7EB
:103F8400FFFC001B0228E7D903200EE000200CE010
:103F940000200AE001207047012006E0012004E02F
:103FA400032002E0032000E0002002B070BD0120E5
:103FB400FBE700BF0010024000700040174B5B6835
:103FC40003F00C02082A01D01548704703F470115D
:103FD4004FF4701292FAA2F2B2FA82F221FA02F2C9
:103FE4001049885C0D4AD26A02F00F020F2191FA3F
:103FF400A1F1B1FA81F1CA400B498A5C13F4803F04
:1040040005D0074BB3FBF2F300FB03F07047044BFE
:10401400B3FBF2F300FB03F0704700BF0010024053
:1040240000127A002C4900083C490008002800F0DE
:10403400BD8070B50446614B1B6803F007038B42D7
:104044000BD25E4A136823F007030B431360136813
:1040540003F007038B4240F0AB80236813F0020F98
:1040640006D0574A536823F0F003A0680343536013
:104074000D46236813F0010F5AD06368012B2DD02D
:10408400022B40D0022292FAA2F24D4A1068022278
:1040940092FAA2F2B2FA82F202F01F02012101FAAC
:1040A40002F2104200F0868045494A6822F0030279
:1040B40013434B60FFF764FC0646414B5B6803F017
:1040C4000C036268B3EB820F32D0FFF759FC801BFC
:1040D40041F288339842F0D9032066E04FF400326D
:1040E40092FAA2F2364A10684FF4003292FAA2F21F
:1040F400B2FA82F202F01F02012101FA02F2024234
:10410400D2D1012051E04FF0007292FAA2F22C4A6F
:1041140010684FF0007292FAA2F2B2FA82F202F040
:104124001F02012101FA02F21042BDD101203CE03C
:10413400224B1B6803F00703AB420AD91F4A1368DA
:1041440023F007032B431360136803F00703AB4208
:1041540032D1236813F0040F06D0194A536823F4AC
:10416400E063E1680B435360236813F0080F07D042
:10417400134A536823F46053216943EAC10353602B
:10418400FFF71CFF0E4B5B6803F0F003F02292FA7A
:10419400A2F2B2FA82F2D3400A4AD35CD8400A4B64
:1041A40018600020FFF7A8FB002070BD01207047B5
:1041B4000120FAE70120F8E70120F6E70020024099
:1041C400001002404C49000824000020014B1868EC
:1041D400704700BF2400002008B5FFF7F7FF074B26
:1041E4005B6803F4E0634FF4E06292FAA2F2B2FA7D
:1041F40082F2D340024AD35CD84008BD001002408A
:104204005C49000808B5FFF7E1FF074B5B6803F45E
:1042140060534FF4605292FAA2F2B2FA82F2D3409F
:10422400024AD35CD84008BD001002405C49000833
:10423400F0B583B00446036813F4803F48D0A14B23
:10424400DB6913F0805F40F022819E4BDA6942F013
:104254008052DA61DB6903F080530193019B0125ED
:10426400994B1B6813F4807F00F01381954B1B6AF4
:1042740013F4407322D0626802F440729A421DD053
:104284009048016A21F440764FF4803393FAA3F204
:10429400B2FA82F28D4F3A4492004FF0010CC2F808
:1042A40000C093FAA3F3B3FA83F33B449B000022C8
:1042B4001A60066211F0010F40F00081814A136A0E
:1042C40023F4407361680B431362002D40F0238193
:1042D400236813F0010F06D07A4A136B23F003030B
:1042E400A1680B431363236813F0020F06D0754AC9
:1042F400136B23F44033E1680B431363236813F017
:10430400040F06D06F4A136B23F4402321690B4337
:104314001363236813F0200F06D06A4A136B23F04B
:104324001003E1690B431363236813F4003F06D0C1
:10433400644A536823F48003616D0B43536023681C
:1043440013F0400F06D05F4A136B23F02003216A59
:104354000B431363236813F4802F06D0594A136B5D
:1043640023F04003616A0B431363236813F0080FBF
:1043740006D0544A136B23F4401361690B4313634F
:10438400236813F0100F06D04E4A136B23F4400336
:10439400A1690B431363236813F4007F06D0494AD1
:1043A400536823F40003216B0B435360236813F019
:1043B400800F06D0434AD36A23F4F873A16A0B43EF
:1043C400D362236813F4807F06D03E4AD36A23F471
:1043D4007853E16A0B43D362236813F4805F06D0F9
:1043E400384A136B23F48073616B0B4313632368A4
:1043F40013F4005F06D0334A136B23F40073216C6B
:104404000B431363236813F4801F06D02D4A136BE8
:1044140023F08073A16B0B431363236813F4001F11
:1044240006D0284A136B23F00073E16B0B4313632C
:10443400236813F4800F06D0224A136B23F480639D
:10444400616C0B431363236813F4000F06D01D4AF9
:10445400136B23F40063A16C0B431363236813F001
:10446400807F06D0174A136B23F40053E16C0B438F
:104474001363236813F0007F54D0124A136B23F4A0
:104484000043216D0B431363002003B0F0BD0025EE
:10449400E6E60D4A136843F480731360FFF770FA7D
:1044A4000646094B1B6813F4807F7FF4DFAEFFF7E9
:1044B40067FA801B6428F4D90320E6E7FFF760FA63
:1044C40006461BE00010024000700040008190107E
:1044D400154B196A022393FAA3F3B3FA83F303F097
:1044E4001F03012202FA03F30B427FF4E7AEFFF746
:1044F40047FA801B41F28833984211D8022393FA79
:10450400A3F293FAA3F3002BE2D1022393FAA3F3C9
:10451400054B596ADEE7D36923F08053D361D7E6AC
:104524000320B2E70020B0E700100240F0B482B0EC
:10453400002336E0062400E00024B4403C43023566
:10454400614E46F82540614C2568D44304EA0506CB
:104554004F6817F4803F01D042EA05065B4D2E6098
:104564006D6804EA05064F6817F4003F01D042EA7B
:104574000506564D6E60AD6804EA05064F6817F4EB
:10458400801F01D042EA0506504DAE60ED682C4014
:104594004E6816F4001F01D042EA05044B4AD46069
:1045A40001330A6832FA03F400F08B8001249C4042
:1045B4002240F5D04D68022D01D0122D10D1DE0815
:1045C400083650F826C003F00705AF000F25BD409C
:1045D4002CEA050C0D69BD4045EA0C0540F826504F
:1045E40006685F000325BD40ED4305EA060C4E68EE
:1045F40006F00306BE4046EA0C0606604E6806F165
:10460400FF3CBCF1010F03D9112E01D0122E10D1A1
:10461400866805EA060CCE68BE4046EA0C0686604B
:10462400466826EA04044E68C6F300169E402643F4
:104634004660C46825408C68BC402C43C4604C6808
:1046440014F0805FACD0224CA56945F00105A5614A
:10465400A46904F001040194019C9D08AE1C1A4C49
:1046640054F8267003F00304A6000F24B44027EA8C
:104674000407B0F1904F3FF45FAF164CA04216D040
:1046840004F58064A04214D004F58064A04212D0E2
:1046940004F58064A04210D004F58064A0420ED0DA
:1046A40004F58064A0423FF445AF072445E70124A4
:1046B40043E7022441E703243FE704243DE70524BC
:1046C4003BE702B0F0BC7047000001400004014029
:1046D40000100240000400480AB181617047816201
:1046E400704708B590F82130022B03D0042383636C
:1046F400012008BD0268136823F00E0313600268EA
:10470400136823F001031360036CC16B012202FAE6
:1047140003F34B6080F82120002380F82030436BA2
:1047240013B198470020E4E70020E2E7074AD36882
:1047340023F4E0631B041B0C000200F4E060184344
:1047440040F0BF6040F40030D060704700ED00E0FE
:1047540030B4174BDB68C3F30223C3F10704042C02
:1047640028BF04241D1D062D01D9033B00E00023AE
:104774004FF0FF3505FA04F421EA0401994005FAE3
:1047840003F322EA03031943002809DB0901C9B230
:1047940000F1604000F5614080F8001330BC7047C0
:1047A40000F00F000901C9B2024B1954F6E700BF2B
:1047B40000ED00E014ED00E000F01F0240090123C9
:1047C4009340024A42F82030704700BF00E100E005
:1047D4000138B0F1807F0AD2064B5860064AF021B6
:1047E40082F823100020986007221A607047012085
:1047F400704700BF10E000E000ED00E01549D1F87B
:10480400883043F47003C1F88830134B1A6842F0BF
:1048140001021A605868114A02405A601A6822F06C
:10482400847222F480321A601A6822F480221A6098
:104834005A6822F4FE025A60DA6A22F00F02DA623F
:10484400186B074A02401A6300229A604FF0006313
:104854008B60704700ED00E0001002400CC07FF850
:10486400CCFC00FFDFF834D0002103E00C4B5B5894
:10487400435004310B480C4B42189A42F6D30B4A6E
:1048840002E0002342F8043B094B9A42F9D3FFF7B4
:10489400B5FF00F011F8FCF7ABFCFEE700000120C7
:1048A400744900080000002028000020280000208F
:1048B400040A0020FEE7000070B50D4D0D4C641B8A
:1048C400A4100026A64209D10B4D0C4C00F020F890
:1048D400641BA4100026A64205D170BD55F8043B04
:1048E40098470136EEE755F8043B98470136F2E75E
:1048F4006C4900086C4900086C49000870490008BC
:1049040002440346934200D1704703F8011BF9E7C0
:10491400F8B500BFF8BC08BC9E467047F8B500BFA8
:08492400F8BC08BC9E46704778
:10492C0002030405060708090A0B0C0D0E0F1010E4
:10493C000102030405060708090A0B0C0D0E0F10E3
:10494C000000000000000000010203040607080933
:08495C00000000000102030449
:084964003CC1FF7F01000000CF
:04496C00B901000885
:0449700095010008A5
:1049740038000000FFFF00004E0000009600000019
:1049840001000000460000001400DA0201000000EB
:084994001000000000127A007F
:04000005080048693E
:00000001FF
